:1017BF00B9D8B1D5D7AACFF2B5C60A00D7F3D7AAF1
:0817CF000A00D3D2D7AA0A00D8
:0B000E000236000002390000013873C8
:10183B001214BC12172D12179ED2AFC2C512121161
:02184B0080FB20
:1014BC0053B3DF43B42053957F4396805395BF437A
:1014CC0096405395F74396085395FB4396045395D2
:1014DC00FD4396025395FE4396015391DF439220B0
:1014EC005391EF43921053B1FE53B2FE53B1FD53DF
:0314FC00B2FD221C
:10172D00750840750901750D00750CC2750B0175B5
:10173D000A00750F01E4F510FB7A0079087F01129C
:0C174D0000A67D017F011216B853A23FD8
:01175900226D
:10179E00E4F508750901F50A750BA2750C40750E76
:1017AE0001FB7A007908FF1208DCE4FD7F010215C7
:0117BE0082A8
:10184D00D2A7D2A6D295D294D2A3D2A2D2A1D2A0FF
:01185D002268
:10113300E53A640745397003C38001D392A7E53AC2
:10114300640645397003C38001D392A6E53A64056A
:1011530045397003C38001D39295E53A6404453958
:101163007003C38001D39294E53A64034539700355
:10117300C38001D392A3E53A640245397003C38067
:1011830001D392A2E53A640145397003C38001D3C8
:0F11930092A1E53A45397003C38001D392A0229F
:1011A200E53A45397003C38001D392A7E53A640159
:1011B20045397003C38001D392A6E53A64024539EA
:1011C2007003C38001D39295E53A640345397003F5
:1011D200C38001D39294E53A640445397003C38015
:1011E20001D392A3E53A640545397003C38001D364
:1011F20092A2E53A640645397003C38001D392A1F5
:0F120200E53A640745397003C38001D392A022F7
:101211007F0112185EE526D3940040521526E5267B
:10122100704CE525D394004042E4F508E508C395E8
:1012310025503874002508F582E43400F583E0F583
:1012410038B473087BFF7A1779BF8018E538B46C1E
:10125100087BFF7A1779CB800BE538B472097BFFE5
:0E1261007A1779D11205E2050880C1E4F5255F
:01126F00225C
:100B4300EFD3940740037FFF22120D97FED3940344
:100B530040037FFF22EF7041EE700B900001120DF6
:100B6300B0F452935294120D97B4010B90000112FA
:100B73000DB04293F45294120D97FEB4020A900002
:100B830001120DB042934294EEB4030D9000011292
:100B93000DB0FEF45293EE4294EF64017043120DD4
:100BA30097FE700B900001120DB0F452915292EE29
:100BB300B4010B900001120DB04291F45292120D48
:100BC30097B4020A900001120DB042914292120DA5
:100BD30097B4030D900001120DB0FEF45291EE4252
:100BE30092EF64027043120D97FE700B9000011296
:100BF3000DB0F452955296EEB4010B900001120D14
:100C0300B04295F45296120D97B4020A9000011265
:100C13000DB042954296120D97B4030D9000011248
:100C23000DB0FEF45295EE4296EF64037043120D3D
:100C330097FE700B900001120DB0F452B152B2EE58
:100C4300B4010B900001120DB042B1F452B2120D77
:100C530097B4020A900001120DB042B142B2120DD4
:100C630097B4030D900001120DB0FEF452B1EE42A1
:100C7300B2EF64047043120D97FE700B90000112E3
:100C83000DB0F452B352B4EEB4010B900001120D47
:100C9300B042B3F452B4120D97B4020A9000011299
:100CA3000DB042B342B4120D97B4030D900001127C
:100CB3000DB0FEF452B3EE42B4EF64057043120D6F
:100CC30097FE700B900001120DB0F452C952CAEE98
:100CD300B4010B900001120DB042C9F452CA120DB7
:100CE30097B4020A900001120DB042C942CA120D14
:100CF30097B4030D900001120DB0FEF452C9EE42F9
:100D0300CAEF64067043120D97FE700B9000011238
:100D13000DB0F452CB52CCEEB4010B900001120D86
:100D2300B042CBF452CC120D97B4020A90000112D8
:100D33000DB042CB42CC120D97B4030D90000112BB
:100D43000DB0FEF452CBEE42CCEF64077043120DAC
:100D530097FF700B900001120DB0F452E152E2EFD5
:100D6300B4010B900001120DB042E1F452E2120DF6
:100D730097B4020A900001120DB042E142E2120D53
:100D830097B4030D900001120DB0FFF452E1EF424E
:040D9300E27F0022D9
:10158200EFD3940140037FFF22EDD3940340037F06
:10159200FF22EF7004C2A98002D2A9ED700553B7F1
:1015A200FDC2B9BD010553B7FDD2B9BD020543B7AE
:0E15B20002C2B9BD030543B702D2B97F0022C1
:1015C000EFD3940140037FFF22EDD3940340037FC8
:1015D000FF22EF7004C2AB8002D2ABED700553B7AF
:1015E000F7C2BBBD010553B7F7D2BBBD020543B778
:0E15F00008C2BBBD030543B708D2BB7F002273
:10175A00EFD3940140037FFF22EDD3940340037F2C
:10176A00FF22EF25E025E0FFE5AF54FB4FF5AFE49C
:02177A00FF224C
:10177C00EFD3940140037FFF22EDD3940340037F0A
:10178C00FF22EFC43354E0FFE5AF54DF4FF5AFE475
:02179C00FF222A
:10006600EFD3940140037FFF22EDD3940340037F37
:10007600FF22EFC4333354C0FFE5AF54BF4FF5AF93
:03008600E4FF2272
:1015FE00EFD3940140037FFF22EDD3940340037F8A
:10160E00FF22EF7004C2A88002D2A8ED700553B776
:10161E00FEC2B8BD010553B7FED2B8BD020543B731
:0E162E0001C2B8BD030543B701D2B87F002248
:10163C00EFD3940140037FFF22EDD3940340037F4B
:10164C00FF22EF7004C2AA8002D2AAED700553B734
:10165C00FBC2BABD010553B7FBD2BABD020543B7F5
:0E166C0004C2BABD030543B704D2BA7F002200
:1017D700EFD3940140037FFF22EFC454F0FFE58F5E
:0817E70054EF4FF58FE4FF22DF
:10004600EFD3940140037FFF22EFC43354E0FFE572
:090056008F54DF4FF58FE4FF2207
:10002600EFD3940140037FFF22EFC4333354C0FF64
:0A003600E58F54BF4FF58FE4FF2261
:10167A00EFD3940140037FFF22EDD3940340037F0D
:10168A00FF22EF7004C2AD8002D2ADED700553B7F0
:10169A00DFC2BDBD010553B7DFD2BDBD020543B7E9
:0E16AA0020C2BDBD030543B720D2BD7F002284
:1013A400EDD3940340037FFF22EF30E10543E620B1
:1013B400800353E6DFEF30E00543E610800353E695
:1013C400EFED700653B6DF53B5DFBD010653B6DF4C
:1013D40043B520BD020643B62053B5DFBD03064323
:0813E400B62043B5207F002272
:10127000EFD3940140037FFF22EBD3940340037F1D
:10128000FF22BF0112ED90FE817006E0547FF080D6
:1012900011E04480F0800BEF700890FE83E05487EB
:1012A0004DF0EB700653B6DF53B5DFBB010653B606
:1012B000DF43B520BB020643B62053B5DFBB0306B0
:0912C00043B62043B5207F002253
:1016B800EFD3940140037FFF22EDD3940340037FCF
:1016C800FF22EF7004C2AC8002D2ACED700553B7B4
:1016D800EFC2BCBD010553B7EFD2BCBD020543B78D
:0E16E80010C2BCBD030543B710D2BC7F002268
:10154200EFD3940140037FFF22EDD3940340037F46
:10155200FF22E5AF54FE4FF5AFED700653B6FE53D2
:10156200B5FEBD010653B6FE43B501BD020643B644
:101572000153B5FEBD030643B60143B5017F002208
:1013EC00EFD3940140037FFF22EDD3940340037F9E
:1013FC00FF22EF33333354F8FFE5AF54F74FF5AF1B
:10140C00ED700653EEFE53DFFEBD010653EEFE43B8
:10141C00DF01BD020643EE0153DFFEBD030643EEC2
:07142C000143DF017F0022F4
:10143300EFD3940140037FFF22EDD3940340037F56
:10144300FF22EFC454F0FFE5AF54EF4FF5AFED705B
:101453000653EEFD53DFFDBD010653EEFD43DF02F0
:10146300BD020643EE0253DFFDBD030643EE024316
:05147300DF027F0022F2
:10147800EFD3940140037FFF22EDD3940340037F11
:10148800FF22EF25E0FFE5AF54FD4FF5AFED700605
:1014980053B6FD53B5FDBD010653B6FD43B502BDB8
:1014A800020643B60253B5FDBD030643B60243B573
:0414B800027F00228D
:10104100EFD3948140037FFF22EBD3940340037FCE
:10105100FF22EF247F603004705890FEC4EDF0EB66
:10106100700653B6FB53B5FBBB010653B6FB43B544
:1010710004BB020643B60453B5FBEB64037038436B
:10108100B60443B504803090FEE4EDF0EB700653F6
:10109100B6F753B5F7BB010653B6F743B508BB0224
:1010A1000643B60853B5F7BB030D43B60843B5086D
:0A10B100800590FEE4EDF07F0022C0
:1016F600EDD394035026ED700653EEFB53DFFBBD8E
:10170600010653EEFB43DF04BD020643EE0453DF3E
:10171600FBBD030B43EE0443DF0480037FFF2290EF
:07172600FE62EFF07F0022DC
:1008DC00AD07ED7079C28C120D97FED394034003D3
:1008EC007FFF22E58954FC4EF589900001120DB072
:1008FC00FED3940240037FFF22EE7006538E7F538B
:10090C0089FB900001120DB0B40106438E8053890F
:10091C00FB900001120DB0B4020343890490000255
:10092C00120DB0FFE58F54FE4FF58F900003120DA2
:10093C00DDE5F0F58C900003120DDDF58A900006D4
:10094C00120DB07004C28C8002D28C7F0022ED6438
:10095C000160030209E2C28E120D97FED39403408C
:10096C00037FFF22EEC454F0FFE58954CF4FF58985
:10097C00900001120DB0FED3940240037FFF22EED3
:10098C007006538EBF5389BF900001120DB0B40195
:10099C0006438E405389BF900001120DB0B4020380
:1009AC00438940900002120DB025E0FFE58F54FD05
:1009BC004FF58F900003120DDDE5F0F58D900003DF
:1009CC00120DDDF58B900006120DB07004C28E80F6
:1009DC0002D28E7F0022ED64027065538EEF900080
:1009EC0001120DB0FF7006538EFB538EF7EFB4015E
:1009FC0006438E04538EF7EFB40203438E08900027
:100A0C0002120DB025E025E0FFE58F54FB4FF58F6A
:100A1C00900003120DDDE5F0F5D6900003120DDD0C
:100A2C00F5D7900005120DB090FEA2F090000612C2
:100A3C000DB0C454F0FFE58E54EF4FF58E7F0022BD
:100A4C00ED6403707253D1F7900001120DB0FED318
:100A5C00940240037FFF22EE700653D1FD53D1FB6D
:100A6C00900001120DB0B4010643D10253D1FB909A
:100A7C000001120DB0B4020343D104900002120D18
:100A8C00B0FFE5D154FE4FF5D1900003120DDDE51A
:100A9C00F0F5D4900003120DDDF5D5900005120D84
:100AAC00B090FEA3F0900006120DB033333354F81F
:100ABC00FFE5D154F78077ED6404707853D17F90C3
:100ACC000001120DB0FED3940240037FFF22EE70A2
:100ADC000653D1DF53D1BF900001120DB0B4010603
:100AEC0043D12053D1BF900001120DB0B402034387
:100AFC00D140900002120DB0C454F0FFE5D154EF78
:100B0C004FF5D1900003120DDDFDACF0ECF5D2AF3A
:100B1C00058FD3900005120DB090FEA4F090000646
:100B2C00120DB0C43333335480FFE5D1547F4FF5ED
:070B3C00D17F00227FFF22A0
:03000B000210BB25
:1010BB00C0E0C0F0C083C082C0D075D000C000C0FB
:1010CB0001C002C003C004C005C006C0070537E558
:1010DB003770020536647D45367032F536F53705C7
:1010EB003AE53A70020539640845397004F539F56B
:1010FB003AE538B4730512184D8012E538B46C0517
:10110B001211338008E538B472031211A2D007D044
:10111B0006D005D004D003D002D001D000D0D0D05F
:08112B0082D083D0F0D0E03245
:03001B00020008D8
:03000800B2EE3223
:0300630002001E7A
:03001E00B2ED320E
:03009B0002004020
:03004000B2EC32ED
:0300A30002005FF9
:03005F00B2EB32CF
:0800A6008F118B128A138914DB
:1000AE00E5116401600302021CF522F523F524F527
:1000BE0025F526F515F51674402516F582740135CD
:1000CE0015F583E4F00516E51670020515648045F6
:1000DE001570E4E4F515F51674002516F582740016
:1000EE003515F583E4F00516E516700205156480E6
:1000FE00451570E4AB12AA13A914120D97FFE598DB
:10010E00543F4FF598EF64C06008EF6440600302FF
:10011E0001D1900002120F077F807E8D7D5B7C00E7
:10012E00120E518F1A8E198D188C17E4FFFE7D0159
:10013E00FCAB1AAA19A918A817C3120EE340037F25
:10014E00FF22C3E4951AF51AE49519F51974019571
:10015E0018F518E49517F517AB12AA13A914900009
:10016E0001120DB0FB6401702CC28E538EFE5389AA
:10017E00BF5389CF438E40AF1AAE19AD18AC177866
:10018E0008120EF48F8D851A8BC2AB5389BF538F15
:10019E00FDD28E8062EB64027026538EEF438E0189
:1001AE00538EF7438E04AF1AAE19AD18AC177808FC
:1001BE00120EF48FD6851AD753AFFB438E108037AD
:1001CE007FFF22AB12AA13A914120D97FF70139082
:1001DE000008120DB0B40105438E20801A538EDF35
:1001EE008015EFB48011900008120DB0B4010543D4
:1001FE008780800353877FAB12AA13A91490000740
:10020E00120DB07004C29C8002D29C7F0022E511B8
:10021E0064026003020315F527F528F529F52AF582
:10022E002BF515F51674E02516F58274013515F5C6
:10023E0083E4F00516E51670020515648045157009
:10024E00E4E4F515F51674802516F582740035155F
:10025E00F583E4F00516E516700205156480451564
:10026E0070E4AB12AA13A914120D97FF64C06005B7
:10027E00EF64407075EFB4C005439A808003539AC3
:10028E007F900002120F077F807E8D7D5B7C0012B7
:10029E000E518F1A8E198D188C17E4FFFE7D01FCFE
:1002AE00AB1AAA19A918A817C3120EE340037FFFB1
:1002BE0022C3E4951AF51AE49519F51974019518E7
:1002CE00F518E49517F517538EEF538EF7438E04FA
:1002DE00AF1AAE19AD18AC177808120EF48FD6857A
:1002EE001AD753AFFB438E1080037FFF22AB12AAA7
:1002FE0013A914900007120DB0C454F0FFE59A54E0
:10030E00EF4FF59A7F0022E5116403600302044962
:10031E00F52CF52DF52EF52FF530F515F516746037
:10032E002516F58274023515F583E4F00516E516EB
:10033E00700205156440451570E4E4F515F5167464
:10034E00002516F58274013515F583E4F00516E5E2
:10035E0016700205156440451570E4AB12AA13A978
:10036E0014120D97FF64C06008EF6440600302042E
:10037E002CEFB4C00543AC80800353AC7F900002D9
:10038E00120F077F807E8D7D5B7C00120E518F1ABF
:10039E008E198D188C17E4FFFE7D01FCAB1AAA197D
:1003AE00A918A817C3120EE340037FFF22C3E495DA
:1003BE001AF51AE49519F51974019518F518E495BE
:1003CE0017F517AB12AA13A914900001120DB0FB6A
:1003DE00B4031D43AC40AF1AAE19AD18AC17780874
:1003EE00120EF48FD4851AD553D1F043D10A803131
:1003FE00EB64027026538EEF53ACBF538EF7438ED1
:10040E0004AF1AAE19AD18AC177808120EF48FD6C9
:10041E00851AD753AFFB438E1080067FFF227FFFD6
:10042E0022AB12AA13A914900007120DB0C454F0F7
:10043E00FFE5AC54EF4FF5AC7F0022E5116404608C
:10044E000302057DF531F532F533F534F535F51545
:10045E00F51674A02516F58274023515F583E4F0B1
:10046E000516E516700205156420451570E4E4F5D1
:10047E0015F51674C02516F58274013515F583E44D
:10048E00F00516E516700205156420451570E4ABEF
:10049E0012AA13A914120D97FF64C06008EF6440EE
:1004AE006003020560EFB4C005438480800353846B
:1004BE007F900002120F077F807E8D7D5B7C001285
:1004CE000E518F1A8E198D188C17E4FFFE7D01FCCC
:1004DE00AB1AAA19A918A817C3120EE340037FFF7F
:1004EE0022C3E4951AF51AE49519F51974019518B5
:1004FE00F518E49517F517AB12AA13A9149000017D
:10050E00120DB0FBB4041D438440AF1AAE19AD18E2
:10051E00AC177808120EF48FD2851AD353D10F432D
:10052E00D1A08031EB64027026538EEF5384BF53FB
:10053E008EF7438E04AF1AAE19AD18AC17780812A9
:10054E000EF48FD6851AD753AFFB438E1080067FDD
:10055E00FF227FFF22AB12AA13A914900007120DDF
:10056E00B0C454F0FFE58454EF4FF5847F00227F32
:01057E00FF7D
:01057F002259
:0A186E008F99752401E52470FC2217
:1017EF00120D97FF600C12186E740129F9E43AFA82
:0317FF0080EE2257
:0A1878008F9B752901E52970FC2201
:10180200120D97FF600C121878740129F9E43AFA64
:0318120080EE2243
:0A1882008FAD752E01E52E70FC22DB
:10181500120D97FF600C121882740129F9E43AFA47
:0318250080EE2230
:0A188C008F85753301E53370FC22EF
:10182800120D97FF600C12188C740129F9E43AFA2A
:0318380080EE221D
:05000300AE0702186EBB
:030023000214FFC5
:1014FF00C0E0C083C082C0D075D000C00730982034
:10150F00C298E525C394804003752500AF250525B6
:10151F0074002FF582E43400F583E599F075260504
:10152F00309905C299752400D007D0D0D082D083CE
:03153F00D0E032C7
:030043000212C9DD
:1012C900C0E0C083C082C0D075D000C007E59A30A5
:1012D900E021539AFEE52AC394804003752A00AFA2
:1012E9002A052A74802FF582E43400F583E59BF002
:1012F900752B05E59A30E106539AFD752900D0074B
:09130900D0D0D082D083D0E032B4
:03008B000213124B
:10131200C0E0C083C082C0D075D000C007E5AC3049
:10132200E02153ACFEE52FC394404003752F00AF7C
:101332002F052F74002FF582E43401F583E5ADF01B
:10134200753005E5AC30E10653ACFD752E00D007D3
:09135200D0D0D082D083D0E0326B
:0300930002135BFA
:10135B00C0E0C083C082C0D075D000C007E5843028
:10136B00E0215384FEE534C394204003753400AF71
:10137B0034053474C02FF582E43401F583E585F030
:10138B00753505E58430E1065384FD753300D007D0
:09139B00D0D0D082D083D0E03222
:0F185E007D607C09ED1D70011C144C70F7DFF1EB
:01186D002258
:03000000020FB537
:0C0FB500787FE4F6D8FD75813A020FFC4D
:100D9700BB010689828A83E0225002E722BBFE025A
:090DA700E32289828A83E493228D
:100DB000BB010CE58229F582E5833AF583E02250F8
:100DC00006E92582F8E622BBFE06E92582F8E22242
:0D0DD000E58229F582E5833AF583E493225C
:100DDD00BB0110E58229F582E5833AF583E0F5F054
:100DED00A3E0225009E92582F886F008E622BBFE31
:100DFD000AE92582F8E2F5F008E222E5832AF58377
:080E0D00E993F5F0A3E993223B
:100E150075F008758200EF2FFFEE33FECD33CDCC94
:100E250033CCC58233C5829BED9AEC99E582984017
:100E35000CF582EE9BFEED9AFDEC99FC0FD5F0D6F4
:100E4500E4CEFBE4CDFAE4CCF9A88222B800C1B91E
:100E55000059BA002DEC8BF084CFCECDFCE5F0CB5C
:100E6500F97818EF2FFFEE33FEED33FDEC33FCEB95
:100E750033FB10D703994004EB99FB0FD8E5E4F950
:100E8500FA227818EF2FFFEE33FEED33FDEC33FC3D
:100E9500C933C910D7059BE99A4007EC9BFCE99A31
:100EA500F90FD8E0E4C9FAE4CCFB2275F010EF2F76
:100EB500FFEE33FEED33FDCC33CCC833C810D70776
:100EC5009BEC9AE899400AED9BFDEC9AFCE899F8B1
:0E0ED5000FD5F0DAE4CDFBE4CCFAE4C8F92244
:100EE300EB9FF5F0EA9E42F0E99D42F0E89C45F065
:010EF30022DC
:100EF400E8600FECC313FCED13FDEE13FEEF13FFDC
:030F0400D8F122FF
:100F0700BB010DE58229F582E5833AF583020F5689
:100F17005007E92582F8020F49BBFE07E92582F849
:100F2700020F62E58229F582E5833AF583020F6FA6
:10058000E518240CF8E60518227809300702780CE3
:10059000E475F001120F7F020D972000EB7F2ED241
:1005A000008018EF540F2490D43440D4FF30040B53
:1005B000EF24BFB41A0050032461FFE5196002154F
:1005C00019051CE51C7002051B30070D7809E47540
:1005D000F001120F7FEF020F370200037403D207FE
:1005E0008003E4C207F5188B098A0A890BE4F51920
:1005F000F51BF51CE51960077F201205BB80F5751A
:100600001AFFC201C200C202C203C205C206C2086A
:10061000120589FF700D3007057F001205CCAF1C55
:10062000AE1B22B4255FC2D5C204120589FF24D0B7
:10063000B40A00501A75F00A781930D50508B6FFCB
:100640000106C6A426F620D5047002D20380D92460
:10065000CFB41A00EF5004C2E5D2040207CCD20195
:1006600080C6D20080C0D20280BCD2D580BAD2056A
:1006700080B47F201205BB2002077401B519004029
:10068000F1120580FF1205BB0205F4D208D20680E4
:1006900095120580FB120580FA120580F94A4B700D
:1006A00006799D7A087BFF20022EE519602A7E00DC
:1006B0008E82758300120DB060060EEE651A70F022
:1006C000C2D5EBC0E0EAC0E0E9C0E0EE120813D00A
:1006D000E0F9D0E0FAD0E0FB120D97FF60AAEBC082
:1006E000E0EAC0E0E9C0E01205BBD0E02401F9D0A7
:1006F000E03400FAD0E0FBE51A0460DCD51AD980BA
:10070000877BFF7A08790FD202809C79108002796A
:1007100008C206C2088008D2D5790A8004790AC2C4
:10072000D5E51A047002F51AE4FAFDFEFF12058001
:10073000FC7B08200113120580FD7B1030000A129B
:100740000580FE120580FF7B20EC3382D592D550C8
:1007500013C3E43000069FFFE49EFEE42001039DE6
:10076000FDE49CFCE4CBF8C201EC700CCFCECDCC08
:10077000E824F8F870F38017C3EF33FFEE33FEED93
:1007800033FDEC33FCEB33FB994002FB0FD8E9EB74
:10079000300105F8D0E0C448B201C0E00AEC4D4E8B
:1007A0004F78207B0070C2EAB51A0040BCC0E0124E
:1007B0000815D0F0D0E0200104C4C0E0C4B201C0EC
:1007C000F01205A4D0F0D5F0EB0205F4120F8F065D
:1007D0009153070B5806624C065E42070F4F0717EE
:0F07E00044071749067743071D550701460701D0
:1007EF004507014708BD5006662D066A2E068D2B5C
:1007FF00066E23068B2008A62A06264800000685CB
:10080F003F3F3F00790AA2D5200314300509B910E4
:10081F00020404B9080104A2D520060250010420E5
:10082F0002689202B519005034C0E07F20300319DE
:10083F007F30A20272067205500F12086CC202C2FC
:10084F0006C205C2087F30800F300503E9C0E012F1
:10085F0005BB300503D0E0F9D0E0B519CC30051752
:10086F007F30B9100C1205BB7F583004077F78809A
:10087F0003B908031205BB3002057F2D0205BB7FAC
:10088F00202008F87F2B2006F322920280CF286EBB
:10089F00756C6C2900D2011205803001F8C2017805
:1008AF001930D50108F60206262D50434958120576
:1008BF00802403B405004001E49008B8931205ACFE
:0D08CF00743A1205ACD20375190402070B30
:100FC10002183BE493A3F8E493A34003F68001F2F3
:100FD10008DFF48029E493A3F85407240CC8C33331
:100FE100C4540F4420C8834004F456800146F6DF00
:100FF100E4800B010204081020408090000EE47E82
:10100100019360BCA3FF543F30E509541FFEE493F4
:10101100A360010ECF54C025E060A840B8E493A3BB
:10102100FAE493A3F8E493A3C8C582C8CAC583CAE6
:10103100F0A3C8C582C8CAC583CADFE9DEE780BE9E
:0100190000E6
:100F3700BB010689828A83F0225002F722BBFE0199
:020F4700F32293
:0D0F4900E6FB08E6F908E6FA08E6CBF82218
:0C0F5600E0F8A3E0F9A3E0FAA3E0FB221E
:0D0F6200E2FB08E2F908E2FA08E2CBF8220F
:100F6F00E493F8740193F9740293FA740393FB22D8
:100F7F00FAE6FB0808E6F925F0F618E6CA3AF62273
:100F8F00D083D082F8E4937012740193700DA3A3F1
:100F9F0093F8740193F5828883E473740293686005
:060FAF00EFA3A3A380DF05
:00000001FF
